{
  "_format": "hh-sol-artifact-1",
  "contractName": "Treasury",
  "sourceName": "contracts/Treasury.sol",
  "abi": [
    {
      "inputs": [],
      "stateMutability": "nonpayable",
      "type": "constructor"
    },
    {
      "inputs": [
        {
          "internalType": "address",
          "name": "owner",
          "type": "address"
        }
      ],
      "name": "OwnableInvalidOwner",
      "type": "error"
    },
    {
      "inputs": [
        {
          "internalType": "address",
          "name": "account",
          "type": "address"
        }
      ],
      "name": "OwnableUnauthorizedAccount",
      "type": "error"
    },
    {
      "anonymous": false,
      "inputs": [
        {
          "indexed": true,
          "internalType": "address",
          "name": "from",
          "type": "address"
        },
        {
          "indexed": false,
          "internalType": "uint256",
          "name": "amount",
          "type": "uint256"
        }
      ],
      "name": "Deposit",
      "type": "event"
    },
    {
      "anonymous": false,
      "inputs": [
        {
          "indexed": true,
          "internalType": "address",
          "name": "previousOwner",
          "type": "address"
        },
        {
          "indexed": true,
          "internalType": "address",
          "name": "newOwner",
          "type": "address"
        }
      ],
      "name": "OwnershipTransferred",
      "type": "event"
    },
    {
      "anonymous": false,
      "inputs": [
        {
          "indexed": true,
          "internalType": "address",
          "name": "to",
          "type": "address"
        },
        {
          "indexed": false,
          "internalType": "uint256",
          "name": "amount",
          "type": "uint256"
        }
      ],
      "name": "Withdrawal",
      "type": "event"
    },
    {
      "inputs": [],
      "name": "getBalance",
      "outputs": [
        {
          "internalType": "uint256",
          "name": "",
          "type": "uint256"
        }
      ],
      "stateMutability": "view",
      "type": "function"
    },
    {
      "inputs": [],
      "name": "owner",
      "outputs": [
        {
          "internalType": "address",
          "name": "",
          "type": "address"
        }
      ],
      "stateMutability": "view",
      "type": "function"
    },
    {
      "inputs": [],
      "name": "renounceOwnership",
      "outputs": [],
      "stateMutability": "nonpayable",
      "type": "function"
    },
    {
      "inputs": [
        {
          "internalType": "address",
          "name": "newOwner",
          "type": "address"
        }
      ],
      "name": "transferOwnership",
      "outputs": [],
      "stateMutability": "nonpayable",
      "type": "function"
    },
    {
      "inputs": [
        {
          "internalType": "address payable",
          "name": "to",
          "type": "address"
        },
        {
          "internalType": "uint256",
          "name": "amount",
          "type": "uint256"
        }
      ],
      "name": "withdraw",
      "outputs": [],
      "stateMutability": "nonpayable",
      "type": "function"
    },
    {
      "stateMutability": "payable",
      "type": "receive"
    }
  ],
  "bytecode": "0x608060405234801561001057600080fd5b5033600073ffffffffffffffffffffffffffffffffffffffff168173ffffffffffffffffffffffffffffffffffffffff16036100845760006040517f1e4fbdf700000000000000000000000000000000000000000000000000000000815260040161007b919061019e565b60405180910390fd5b6100938161009960201b60201c565b506101b9565b60008060009054906101000a900473ffffffffffffffffffffffffffffffffffffffff169050816000806101000a81548173ffffffffffffffffffffffffffffffffffffffff021916908373ffffffffffffffffffffffffffffffffffffffff1602179055508173ffffffffffffffffffffffffffffffffffffffff168173ffffffffffffffffffffffffffffffffffffffff167f8be0079c531659141344cd1fd0a4f28419497f9722a3daafe3b4186f6b6457e060405160405180910390a35050565b600073ffffffffffffffffffffffffffffffffffffffff82169050919050565b60006101888261015d565b9050919050565b6101988161017d565b82525050565b60006020820190506101b3600083018461018f565b92915050565b6106b4806101c86000396000f3fe60806040526004361061004e5760003560e01c806312065fe0146100a8578063715018a6146100d35780638da5cb5b146100ea578063f2fde38b14610115578063f3fef3a31461013e576100a3565b366100a3573373ffffffffffffffffffffffffffffffffffffffff167fe1fffcc4923d04b559f4d29a8bfc6cda04eb5b0d3c460751c2402c5c5cc9109c346040516100999190610482565b60405180910390a2005b600080fd5b3480156100b457600080fd5b506100bd610167565b6040516100ca9190610482565b60405180910390f35b3480156100df57600080fd5b506100e861016f565b005b3480156100f657600080fd5b506100ff610183565b60405161010c91906104de565b60405180910390f35b34801561012157600080fd5b5061013c6004803603810190610137919061052a565b6101ac565b005b34801561014a57600080fd5b50610165600480360381019061016091906105c1565b610232565b005b600047905090565b610177610316565b610181600061039d565b565b60008060009054906101000a900473ffffffffffffffffffffffffffffffffffffffff16905090565b6101b4610316565b600073ffffffffffffffffffffffffffffffffffffffff168173ffffffffffffffffffffffffffffffffffffffff16036102265760006040517f1e4fbdf700000000000000000000000000000000000000000000000000000000815260040161021d91906104de565b60405180910390fd5b61022f8161039d565b50565b61023a610316565b8047101561027d576040517f08c379a00000000000000000000000000000000000000000000000000000000081526004016102749061065e565b60405180910390fd5b8173ffffffffffffffffffffffffffffffffffffffff167f7fcf532c15f0a6db0bd6d0e038bea71d30d808c7d98cb3bf7268a95bf5081b65826040516102c39190610482565b60405180910390a28173ffffffffffffffffffffffffffffffffffffffff166108fc829081150290604051600060405180830381858888f19350505050158015610311573d6000803e3d6000fd5b505050565b61031e610461565b73ffffffffffffffffffffffffffffffffffffffff1661033c610183565b73ffffffffffffffffffffffffffffffffffffffff161461039b5761035f610461565b6040517f118cdaa700000000000000000000000000000000000000000000000000000000815260040161039291906104de565b60405180910390fd5b565b60008060009054906101000a900473ffffffffffffffffffffffffffffffffffffffff169050816000806101000a81548173ffffffffffffffffffffffffffffffffffffffff021916908373ffffffffffffffffffffffffffffffffffffffff1602179055508173ffffffffffffffffffffffffffffffffffffffff168173ffffffffffffffffffffffffffffffffffffffff167f8be0079c531659141344cd1fd0a4f28419497f9722a3daafe3b4186f6b6457e060405160405180910390a35050565b600033905090565b6000819050919050565b61047c81610469565b82525050565b60006020820190506104976000830184610473565b92915050565b600073ffffffffffffffffffffffffffffffffffffffff82169050919050565b60006104c88261049d565b9050919050565b6104d8816104bd565b82525050565b60006020820190506104f360008301846104cf565b92915050565b600080fd5b610507816104bd565b811461051257600080fd5b50565b600081359050610524816104fe565b92915050565b6000602082840312156105405761053f6104f9565b5b600061054e84828501610515565b91505092915050565b60006105628261049d565b9050919050565b61057281610557565b811461057d57600080fd5b50565b60008135905061058f81610569565b92915050565b61059e81610469565b81146105a957600080fd5b50565b6000813590506105bb81610595565b92915050565b600080604083850312156105d8576105d76104f9565b5b60006105e685828601610580565b92505060206105f7858286016105ac565b9150509250929050565b600082825260208201905092915050565b7f54726561737572793a20696e73756666696369656e742066756e647300000000600082015250565b6000610648601c83610601565b915061065382610612565b602082019050919050565b600060208201905081810360008301526106778161063b565b905091905056fea26469706673582212202b24ab3cb492759902e09383ccc2c22834a94465aa0da45d85116d455cebf99f64736f6c63430008180033",
  "linkReferences": {},
  "deployedLinkReferences": {}
}