{
  "_format": "hh-sol-artifact-1",
  "contractName": "GovindaDAO",
  "sourceName": "contracts/GovindaDAO.sol",
  "abi": [
    {
      "inputs": [
        {
          "internalType": "address",
          "name": "_membershipNFT",
          "type": "address"
        },
        {
          "internalType": "address",
          "name": "_treasury",
          "type": "address"
        }
      ],
      "stateMutability": "nonpayable",
      "type": "constructor"
    },
    {
      "inputs": [
        {
          "internalType": "address",
          "name": "owner",
          "type": "address"
        }
      ],
      "name": "OwnableInvalidOwner",
      "type": "error"
    },
    {
      "inputs": [
        {
          "internalType": "address",
          "name": "account",
          "type": "address"
        }
      ],
      "name": "OwnableUnauthorizedAccount",
      "type": "error"
    },
    {
      "anonymous": false,
      "inputs": [
        {
          "indexed": true,
          "internalType": "address",
          "name": "previousOwner",
          "type": "address"
        },
        {
          "indexed": true,
          "internalType": "address",
          "name": "newOwner",
          "type": "address"
        }
      ],
      "name": "OwnershipTransferred",
      "type": "event"
    },
    {
      "anonymous": false,
      "inputs": [
        {
          "indexed": false,
          "internalType": "uint256",
          "name": "id",
          "type": "uint256"
        },
        {
          "indexed": false,
          "internalType": "address",
          "name": "proposer",
          "type": "address"
        },
        {
          "indexed": false,
          "internalType": "address",
          "name": "target",
          "type": "address"
        },
        {
          "indexed": false,
          "internalType": "bytes",
          "name": "data",
          "type": "bytes"
        },
        {
          "indexed": false,
          "internalType": "uint256",
          "name": "voteStart",
          "type": "uint256"
        },
        {
          "indexed": false,
          "internalType": "uint256",
          "name": "voteEnd",
          "type": "uint256"
        }
      ],
      "name": "ProposalCreated",
      "type": "event"
    },
    {
      "anonymous": false,
      "inputs": [
        {
          "indexed": false,
          "internalType": "uint256",
          "name": "proposalId",
          "type": "uint256"
        },
        {
          "indexed": false,
          "internalType": "address",
          "name": "voter",
          "type": "address"
        },
        {
          "indexed": false,
          "internalType": "bool",
          "name": "inFavor",
          "type": "bool"
        },
        {
          "indexed": false,
          "internalType": "uint256",
          "name": "votingPower",
          "type": "uint256"
        }
      ],
      "name": "Voted",
      "type": "event"
    },
    {
      "inputs": [
        {
          "internalType": "address",
          "name": "target",
          "type": "address"
        },
        {
          "internalType": "bytes",
          "name": "data",
          "type": "bytes"
        }
      ],
      "name": "createProposal",
      "outputs": [],
      "stateMutability": "nonpayable",
      "type": "function"
    },
    {
      "inputs": [
        {
          "internalType": "uint256",
          "name": "proposalId",
          "type": "uint256"
        }
      ],
      "name": "executeProposal",
      "outputs": [],
      "stateMutability": "nonpayable",
      "type": "function"
    },
    {
      "inputs": [],
      "name": "membershipNFT",
      "outputs": [
        {
          "internalType": "contract MembershipNFT",
          "name": "",
          "type": "address"
        }
      ],
      "stateMutability": "view",
      "type": "function"
    },
    {
      "inputs": [],
      "name": "owner",
      "outputs": [
        {
          "internalType": "address",
          "name": "",
          "type": "address"
        }
      ],
      "stateMutability": "view",
      "type": "function"
    },
    {
      "inputs": [],
      "name": "proposalCount",
      "outputs": [
        {
          "internalType": "uint256",
          "name": "",
          "type": "uint256"
        }
      ],
      "stateMutability": "view",
      "type": "function"
    },
    {
      "inputs": [
        {
          "internalType": "uint256",
          "name": "",
          "type": "uint256"
        }
      ],
      "name": "proposals",
      "outputs": [
        {
          "internalType": "uint256",
          "name": "id",
          "type": "uint256"
        },
        {
          "internalType": "address",
          "name": "proposer",
          "type": "address"
        },
        {
          "internalType": "address",
          "name": "target",
          "type": "address"
        },
        {
          "internalType": "bytes",
          "name": "data",
          "type": "bytes"
        },
        {
          "internalType": "uint256",
          "name": "voteStart",
          "type": "uint256"
        },
        {
          "internalType": "uint256",
          "name": "voteEnd",
          "type": "uint256"
        },
        {
          "internalType": "uint256",
          "name": "forVotes",
          "type": "uint256"
        },
        {
          "internalType": "uint256",
          "name": "againstVotes",
          "type": "uint256"
        },
        {
          "internalType": "bool",
          "name": "executed",
          "type": "bool"
        }
      ],
      "stateMutability": "view",
      "type": "function"
    },
    {
      "inputs": [],
      "name": "renounceOwnership",
      "outputs": [],
      "stateMutability": "nonpayable",
      "type": "function"
    },
    {
      "inputs": [
        {
          "internalType": "address",
          "name": "newOwner",
          "type": "address"
        }
      ],
      "name": "transferOwnership",
      "outputs": [],
      "stateMutability": "nonpayable",
      "type": "function"
    },
    {
      "inputs": [],
      "name": "treasury",
      "outputs": [
        {
          "internalType": "contract Treasury",
          "name": "",
          "type": "address"
        }
      ],
      "stateMutability": "view",
      "type": "function"
    },
    {
      "inputs": [
        {
          "internalType": "uint256",
          "name": "proposalId",
          "type": "uint256"
        },
        {
          "internalType": "bool",
          "name": "inFavor",
          "type": "bool"
        }
      ],
      "name": "vote",
      "outputs": [],
      "stateMutability": "nonpayable",
      "type": "function"
    }
  ],
  "bytecode": "0x60806040523480156200001157600080fd5b5060405162001f8438038062001f84833981810160405281019062000037919062000277565b33600073ffffffffffffffffffffffffffffffffffffffff168173ffffffffffffffffffffffffffffffffffffffff1603620000ad5760006040517f1e4fbdf7000000000000000000000000000000000000000000000000000000008152600401620000a49190620002cf565b60405180910390fd5b620000be816200014960201b60201c565b5081600160006101000a81548173ffffffffffffffffffffffffffffffffffffffff021916908373ffffffffffffffffffffffffffffffffffffffff16021790555080600260006101000a81548173ffffffffffffffffffffffffffffffffffffffff021916908373ffffffffffffffffffffffffffffffffffffffff1602179055505050620002ec565b60008060009054906101000a900473ffffffffffffffffffffffffffffffffffffffff169050816000806101000a81548173ffffffffffffffffffffffffffffffffffffffff021916908373ffffffffffffffffffffffffffffffffffffffff1602179055508173ffffffffffffffffffffffffffffffffffffffff168173ffffffffffffffffffffffffffffffffffffffff167f8be0079c531659141344cd1fd0a4f28419497f9722a3daafe3b4186f6b6457e060405160405180910390a35050565b600080fd5b600073ffffffffffffffffffffffffffffffffffffffff82169050919050565b60006200023f8262000212565b9050919050565b620002518162000232565b81146200025d57600080fd5b50565b600081519050620002718162000246565b92915050565b600080604083850312156200029157620002906200020d565b5b6000620002a18582860162000260565b9250506020620002b48582860162000260565b9150509250929050565b620002c98162000232565b82525050565b6000602082019050620002e66000830184620002be565b92915050565b611c8880620002fc6000396000f3fe608060405234801561001057600080fd5b506004361061009e5760003560e01c80638da5cb5b116100665780638da5cb5b1461013b578063985d0b1e14610159578063c9d27afe14610177578063da35c66414610193578063f2fde38b146101b15761009e565b8063013cf08b146100a35780630d61b519146100db578063197ba2b0146100f757806361d027b314610113578063715018a614610131575b600080fd5b6100bd60048036038101906100b89190610e0a565b6101cd565b6040516100d299989796959493929190610f32565b60405180910390f35b6100f560048036038101906100f09190610e0a565b6102f0565b005b610111600480360381019061010c9190611127565b6104e8565b005b61011b61072d565b60405161012891906111e2565b60405180910390f35b610139610753565b005b610143610767565b60405161015091906111fd565b60405180910390f35b610161610790565b60405161016e919061124b565b60405180910390f35b610191600480360381019061018c9190611292565b6107b6565b005b61019b610be1565b6040516101a891906112d2565b60405180910390f35b6101cb60048036038101906101c691906112ed565b610be7565b005b60046020528060005260406000206000915090508060000154908060010160009054906101000a900473ffffffffffffffffffffffffffffffffffffffff16908060020160009054906101000a900473ffffffffffffffffffffffffffffffffffffffff169080600301805461024290611349565b80601f016020809104026020016040519081016040528092919081815260200182805461026e90611349565b80156102bb5780601f10610290576101008083540402835291602001916102bb565b820191906000526020600020905b81548152906001019060200180831161029e57829003601f168201915b5050505050908060040154908060050154908060060154908060070154908060080160009054906101000a900460ff16905089565b6102f8610c6d565b60006004600083815260200190815260200160002090508060050154421015610356576040517f08c379a000000000000000000000000000000000000000000000000000000000815260040161034d906113d7565b60405180910390fd5b8060080160009054906101000a900460ff16156103a8576040517f08c379a000000000000000000000000000000000000000000000000000000000815260040161039f90611443565b60405180910390fd5b80600701548160060154116103f2576040517f08c379a00000000000000000000000000000000000000000000000000000000081526004016103e9906114af565b60405180910390fd5b60018160080160006101000a81548160ff02191690831515021790555060008160020160009054906101000a900473ffffffffffffffffffffffffffffffffffffffff1673ffffffffffffffffffffffffffffffffffffffff168260030160405161045d9190611572565b6000604051808303816000865af19150503d806000811461049a576040519150601f19603f3d011682016040523d82523d6000602084013e61049f565b606091505b50509050806104e3576040517f08c379a00000000000000000000000000000000000000000000000000000000081526004016104da906115d5565b60405180910390fd5b505050565b6000600160009054906101000a900473ffffffffffffffffffffffffffffffffffffffff1673ffffffffffffffffffffffffffffffffffffffff166370a08231336040518263ffffffff1660e01b815260040161054591906111fd565b602060405180830381865afa158015610562573d6000803e3d6000fd5b505050506040513d601f19601f82011682018060405250810190610586919061160a565b9050600081116105cb576040517f08c379a00000000000000000000000000000000000000000000000000000000081526004016105c2906116a9565b60405180910390fd5b600360008154809291906105de906116f8565b9190505550600060046000600354815260200190815260200160002090506003548160000181905550338160010160006101000a81548173ffffffffffffffffffffffffffffffffffffffff021916908373ffffffffffffffffffffffffffffffffffffffff160217905550838160020160006101000a81548173ffffffffffffffffffffffffffffffffffffffff021916908373ffffffffffffffffffffffffffffffffffffffff1602179055508281600301908161069e91906118cd565b5042816004018190555062093a80426106b7919061199f565b816005018190555060008160080160006101000a81548160ff0219169083151502179055507f843c3dd6654ab615b7f8dbf4838aaf0ff9d88a9d4c3008265759e9edc3cf31dc6003543386868560040154866005015460405161071f969594939291906119d3565b60405180910390a150505050565b600260009054906101000a900473ffffffffffffffffffffffffffffffffffffffff1681565b61075b610c6d565b6107656000610cf4565b565b60008060009054906101000a900473ffffffffffffffffffffffffffffffffffffffff16905090565b600160009054906101000a900473ffffffffffffffffffffffffffffffffffffffff1681565b6000600460008481526020019081526020016000209050806004015442101580156107e45750806005015442105b610823576040517f08c379a000000000000000000000000000000000000000000000000000000000815260040161081a90611a87565b60405180910390fd5b8060090160003373ffffffffffffffffffffffffffffffffffffffff1673ffffffffffffffffffffffffffffffffffffffff16815260200190815260200160002060009054906101000a900460ff16156108b2576040517f08c379a00000000000000000000000000000000000000000000000000000000081526004016108a990611af3565b60405180910390fd5b600080600160009054906101000a900473ffffffffffffffffffffffffffffffffffffffff1673ffffffffffffffffffffffffffffffffffffffff166370a08231336040518263ffffffff1660e01b815260040161091091906111fd565b602060405180830381865afa15801561092d573d6000803e3d6000fd5b505050506040513d601f19601f82011682018060405250810190610951919061160a565b905060005b81811015610abd576000600160009054906101000a900473ffffffffffffffffffffffffffffffffffffffff1673ffffffffffffffffffffffffffffffffffffffff16632f745c5933846040518363ffffffff1660e01b81526004016109bd929190611b13565b602060405180830381865afa1580156109da573d6000803e3d6000fd5b505050506040513d601f19601f820116820180604052508101906109fe919061160a565b90506000600160009054906101000a900473ffffffffffffffffffffffffffffffffffffffff1673ffffffffffffffffffffffffffffffffffffffff1663d90d0ee6836040518263ffffffff1660e01b8152600401610a5d91906112d2565b6040805180830381865afa158015610a79573d6000803e3d6000fd5b505050506040513d601f19601f82011682018060405250810190610a9d9190611b61565b9150508085610aac919061199f565b945050508080600101915050610956565b5060008211610b01576040517f08c379a0000000000000000000000000000000000000000000000000000000008152600401610af890611bed565b60405180910390fd5b60018360090160003373ffffffffffffffffffffffffffffffffffffffff1673ffffffffffffffffffffffffffffffffffffffff16815260200190815260200160002060006101000a81548160ff0219169083151502179055508315610b815781836006016000828254610b75919061199f565b92505081905550610b9d565b81836007016000828254610b95919061199f565b925050819055505b7f7c2de587c00d75474a0c6c6fa96fd3b45dc974cd4e8a75f712bb84c950dce1b585338685604051610bd29493929190611c0d565b60405180910390a15050505050565b60035481565b610bef610c6d565b600073ffffffffffffffffffffffffffffffffffffffff168173ffffffffffffffffffffffffffffffffffffffff1603610c615760006040517f1e4fbdf7000000000000000000000000000000000000000000000000000000008152600401610c5891906111fd565b60405180910390fd5b610c6a81610cf4565b50565b610c75610db8565b73ffffffffffffffffffffffffffffffffffffffff16610c93610767565b73ffffffffffffffffffffffffffffffffffffffff1614610cf257610cb6610db8565b6040517f118cdaa7000000000000000000000000000000000000000000000000000000008152600401610ce991906111fd565b60405180910390fd5b565b60008060009054906101000a900473ffffffffffffffffffffffffffffffffffffffff169050816000806101000a81548173ffffffffffffffffffffffffffffffffffffffff021916908373ffffffffffffffffffffffffffffffffffffffff1602179055508173ffffffffffffffffffffffffffffffffffffffff168173ffffffffffffffffffffffffffffffffffffffff167f8be0079c531659141344cd1fd0a4f28419497f9722a3daafe3b4186f6b6457e060405160405180910390a35050565b600033905090565b6000604051905090565b600080fd5b600080fd5b6000819050919050565b610de781610dd4565b8114610df257600080fd5b50565b600081359050610e0481610dde565b92915050565b600060208284031215610e2057610e1f610dca565b5b6000610e2e84828501610df5565b91505092915050565b610e4081610dd4565b82525050565b600073ffffffffffffffffffffffffffffffffffffffff82169050919050565b6000610e7182610e46565b9050919050565b610e8181610e66565b82525050565b600081519050919050565b600082825260208201905092915050565b60005b83811015610ec1578082015181840152602081019050610ea6565b60008484015250505050565b6000601f19601f8301169050919050565b6000610ee982610e87565b610ef38185610e92565b9350610f03818560208601610ea3565b610f0c81610ecd565b840191505092915050565b60008115159050919050565b610f2c81610f17565b82525050565b600061012082019050610f48600083018c610e37565b610f55602083018b610e78565b610f62604083018a610e78565b8181036060830152610f748189610ede565b9050610f836080830188610e37565b610f9060a0830187610e37565b610f9d60c0830186610e37565b610faa60e0830185610e37565b610fb8610100830184610f23565b9a9950505050505050505050565b610fcf81610e66565b8114610fda57600080fd5b50565b600081359050610fec81610fc6565b92915050565b600080fd5b600080fd5b7f4e487b7100000000000000000000000000000000000000000000000000000000600052604160045260246000fd5b61103482610ecd565b810181811067ffffffffffffffff8211171561105357611052610ffc565b5b80604052505050565b6000611066610dc0565b9050611072828261102b565b919050565b600067ffffffffffffffff82111561109257611091610ffc565b5b61109b82610ecd565b9050602081019050919050565b82818337600083830152505050565b60006110ca6110c584611077565b61105c565b9050828152602081018484840111156110e6576110e5610ff7565b5b6110f18482856110a8565b509392505050565b600082601f83011261110e5761110d610ff2565b5b813561111e8482602086016110b7565b91505092915050565b6000806040838503121561113e5761113d610dca565b5b600061114c85828601610fdd565b925050602083013567ffffffffffffffff81111561116d5761116c610dcf565b5b611179858286016110f9565b9150509250929050565b6000819050919050565b60006111a86111a361119e84610e46565b611183565b610e46565b9050919050565b60006111ba8261118d565b9050919050565b60006111cc826111af565b9050919050565b6111dc816111c1565b82525050565b60006020820190506111f760008301846111d3565b92915050565b60006020820190506112126000830184610e78565b92915050565b60006112238261118d565b9050919050565b600061123582611218565b9050919050565b6112458161122a565b82525050565b6000602082019050611260600083018461123c565b92915050565b61126f81610f17565b811461127a57600080fd5b50565b60008135905061128c81611266565b92915050565b600080604083850312156112a9576112a8610dca565b5b60006112b785828601610df5565b92505060206112c88582860161127d565b9150509250929050565b60006020820190506112e76000830184610e37565b92915050565b60006020828403121561130357611302610dca565b5b600061131184828501610fdd565b91505092915050565b7f4e487b7100000000000000000000000000000000000000000000000000000000600052602260045260246000fd5b6000600282049050600182168061136157607f821691505b6020821081036113745761137361131a565b5b50919050565b600082825260208201905092915050565b7f44414f3a20766f74696e6720686173206e6f7420656e64656400000000000000600082015250565b60006113c160198361137a565b91506113cc8261138b565b602082019050919050565b600060208201905081810360008301526113f0816113b4565b9050919050565b7f44414f3a2070726f706f73616c20616c72656164792065786563757465640000600082015250565b600061142d601e8361137a565b9150611438826113f7565b602082019050919050565b6000602082019050818103600083015261145c81611420565b9050919050565b7f44414f3a2070726f706f73616c20646964206e6f742070617373000000000000600082015250565b6000611499601a8361137a565b91506114a482611463565b602082019050919050565b600060208201905081810360008301526114c88161148c565b9050919050565b600081905092915050565b60008190508160005260206000209050919050565b600081546114fc81611349565b61150681866114cf565b94506001821660008114611521576001811461153657611569565b60ff1983168652811515820286019350611569565b61153f856114da565b60005b8381101561156157815481890152600182019150602081019050611542565b838801955050505b50505092915050565b600061157e82846114ef565b915081905092915050565b7f44414f3a2070726f706f73616c20657865637574696f6e206661696c65640000600082015250565b60006115bf601e8361137a565b91506115ca82611589565b602082019050919050565b600060208201905081810360008301526115ee816115b2565b9050919050565b60008151905061160481610dde565b92915050565b6000602082840312156116205761161f610dca565b5b600061162e848285016115f5565b91505092915050565b7f44414f3a2070726f706f736572206d757374206861766520766f74696e67207060008201527f6f77657200000000000000000000000000000000000000000000000000000000602082015250565b600061169360248361137a565b915061169e82611637565b604082019050919050565b600060208201905081810360008301526116c281611686565b9050919050565b7f4e487b7100000000000000000000000000000000000000000000000000000000600052601160045260246000fd5b600061170382610dd4565b91507fffffffffffffffffffffffffffffffffffffffffffffffffffffffffffffffff8203611735576117346116c9565b5b600182019050919050565b60006020601f8301049050919050565b600082821b905092915050565b60006008830261178d7fffffffffffffffffffffffffffffffffffffffffffffffffffffffffffffffff82611750565b6117978683611750565b95508019841693508086168417925050509392505050565b60006117ca6117c56117c084610dd4565b611183565b610dd4565b9050919050565b6000819050919050565b6117e4836117af565b6117f86117f0826117d1565b84845461175d565b825550505050565b600090565b61180d611800565b6118188184846117db565b505050565b5b8181101561183c57611831600082611805565b60018101905061181e565b5050565b601f82111561188157611852816114da565b61185b84611740565b8101602085101561186a578190505b61187e61187685611740565b83018261181d565b50505b505050565b600082821c905092915050565b60006118a460001984600802611886565b1980831691505092915050565b60006118bd8383611893565b9150826002028217905092915050565b6118d682610e87565b67ffffffffffffffff8111156118ef576118ee610ffc565b5b6118f98254611349565b611904828285611840565b600060209050601f8311600181146119375760008415611925578287015190505b61192f85826118b1565b865550611997565b601f198416611945866114da565b60005b8281101561196d57848901518255600182019150602085019450602081019050611948565b8683101561198a5784890151611986601f891682611893565b8355505b6001600288020188555050505b505050505050565b60006119aa82610dd4565b91506119b583610dd4565b92508282019050808211156119cd576119cc6116c9565b5b92915050565b600060c0820190506119e86000830189610e37565b6119f56020830188610e78565b611a026040830187610e78565b8181036060830152611a148186610ede565b9050611a236080830185610e37565b611a3060a0830184610e37565b979650505050505050565b7f44414f3a20766f74696e67206973206e6f742061637469766500000000000000600082015250565b6000611a7160198361137a565b9150611a7c82611a3b565b602082019050919050565b60006020820190508181036000830152611aa081611a64565b9050919050565b7f44414f3a20616c726561647920766f7465640000000000000000000000000000600082015250565b6000611add60128361137a565b9150611ae882611aa7565b602082019050919050565b60006020820190508181036000830152611b0c81611ad0565b9050919050565b6000604082019050611b286000830185610e78565b611b356020830184610e37565b9392505050565b60048110611b4957600080fd5b50565b600081519050611b5b81611b3c565b92915050565b60008060408385031215611b7857611b77610dca565b5b6000611b8685828601611b4c565b9250506020611b97858286016115f5565b9150509250929050565b7f44414f3a206e6f20766f74696e6720706f776572000000000000000000000000600082015250565b6000611bd760148361137a565b9150611be282611ba1565b602082019050919050565b60006020820190508181036000830152611c0681611bca565b9050919050565b6000608082019050611c226000830187610e37565b611c2f6020830186610e78565b611c3c6040830185610f23565b611c496060830184610e37565b9594505050505056fea26469706673582212200e9b7cf2b2ed04c6ced9c2e0fd780eb65fef15ecaf616d5424991e7c6050992564736f6c63430008180033",
  "linkReferences": {},
  "deployedLinkReferences": {}
}