{
  "_format": "hh-sol-artifact-1",
  "contractName": "MembershipNFT",
  "sourceName": "contracts/MembershipNFT.sol",
  "abi": [
    {
      "inputs": [],
      "stateMutability": "nonpayable",
      "type": "constructor"
    },
    {
      "inputs": [],
      "name": "ERC721EnumerableForbiddenBatchMint",
      "type": "error"
    },
    {
      "inputs": [
        {
          "internalType": "address",
          "name": "sender",
          "type": "address"
        },
        {
          "internalType": "uint256",
          "name": "tokenId",
          "type": "uint256"
        },
        {
          "internalType": "address",
          "name": "owner",
          "type": "address"
        }
      ],
      "name": "ERC721IncorrectOwner",
      "type": "error"
    },
    {
      "inputs": [
        {
          "internalType": "address",
          "name": "operator",
          "type": "address"
        },
        {
          "internalType": "uint256",
          "name": "tokenId",
          "type": "uint256"
        }
      ],
      "name": "ERC721InsufficientApproval",
      "type": "error"
    },
    {
      "inputs": [
        {
          "internalType": "address",
          "name": "approver",
          "type": "address"
        }
      ],
      "name": "ERC721InvalidApprover",
      "type": "error"
    },
    {
      "inputs": [
        {
          "internalType": "address",
          "name": "operator",
          "type": "address"
        }
      ],
      "name": "ERC721InvalidOperator",
      "type": "error"
    },
    {
      "inputs": [
        {
          "internalType": "address",
          "name": "owner",
          "type": "address"
        }
      ],
      "name": "ERC721InvalidOwner",
      "type": "error"
    },
    {
      "inputs": [
        {
          "internalType": "address",
          "name": "receiver",
          "type": "address"
        }
      ],
      "name": "ERC721InvalidReceiver",
      "type": "error"
    },
    {
      "inputs": [
        {
          "internalType": "address",
          "name": "sender",
          "type": "address"
        }
      ],
      "name": "ERC721InvalidSender",
      "type": "error"
    },
    {
      "inputs": [
        {
          "internalType": "uint256",
          "name": "tokenId",
          "type": "uint256"
        }
      ],
      "name": "ERC721NonexistentToken",
      "type": "error"
    },
    {
      "inputs": [
        {
          "internalType": "address",
          "name": "owner",
          "type": "address"
        },
        {
          "internalType": "uint256",
          "name": "index",
          "type": "uint256"
        }
      ],
      "name": "ERC721OutOfBoundsIndex",
      "type": "error"
    },
    {
      "inputs": [
        {
          "internalType": "address",
          "name": "owner",
          "type": "address"
        }
      ],
      "name": "OwnableInvalidOwner",
      "type": "error"
    },
    {
      "inputs": [
        {
          "internalType": "address",
          "name": "account",
          "type": "address"
        }
      ],
      "name": "OwnableUnauthorizedAccount",
      "type": "error"
    },
    {
      "anonymous": false,
      "inputs": [
        {
          "indexed": true,
          "internalType": "address",
          "name": "owner",
          "type": "address"
        },
        {
          "indexed": true,
          "internalType": "address",
          "name": "approved",
          "type": "address"
        },
        {
          "indexed": true,
          "internalType": "uint256",
          "name": "tokenId",
          "type": "uint256"
        }
      ],
      "name": "Approval",
      "type": "event"
    },
    {
      "anonymous": false,
      "inputs": [
        {
          "indexed": true,
          "internalType": "address",
          "name": "owner",
          "type": "address"
        },
        {
          "indexed": true,
          "internalType": "address",
          "name": "operator",
          "type": "address"
        },
        {
          "indexed": false,
          "internalType": "bool",
          "name": "approved",
          "type": "bool"
        }
      ],
      "name": "ApprovalForAll",
      "type": "event"
    },
    {
      "anonymous": false,
      "inputs": [
        {
          "indexed": true,
          "internalType": "address",
          "name": "previousOwner",
          "type": "address"
        },
        {
          "indexed": true,
          "internalType": "address",
          "name": "newOwner",
          "type": "address"
        }
      ],
      "name": "OwnershipTransferred",
      "type": "event"
    },
    {
      "anonymous": false,
      "inputs": [
        {
          "indexed": true,
          "internalType": "address",
          "name": "from",
          "type": "address"
        },
        {
          "indexed": true,
          "internalType": "address",
          "name": "to",
          "type": "address"
        },
        {
          "indexed": true,
          "internalType": "uint256",
          "name": "tokenId",
          "type": "uint256"
        }
      ],
      "name": "Transfer",
      "type": "event"
    },
    {
      "inputs": [
        {
          "internalType": "address",
          "name": "to",
          "type": "address"
        },
        {
          "internalType": "uint256",
          "name": "tokenId",
          "type": "uint256"
        }
      ],
      "name": "approve",
      "outputs": [],
      "stateMutability": "nonpayable",
      "type": "function"
    },
    {
      "inputs": [
        {
          "internalType": "address",
          "name": "owner",
          "type": "address"
        }
      ],
      "name": "balanceOf",
      "outputs": [
        {
          "internalType": "uint256",
          "name": "",
          "type": "uint256"
        }
      ],
      "stateMutability": "view",
      "type": "function"
    },
    {
      "inputs": [
        {
          "internalType": "uint256",
          "name": "tokenId",
          "type": "uint256"
        }
      ],
      "name": "getApproved",
      "outputs": [
        {
          "internalType": "address",
          "name": "",
          "type": "address"
        }
      ],
      "stateMutability": "view",
      "type": "function"
    },
    {
      "inputs": [
        {
          "internalType": "address",
          "name": "owner",
          "type": "address"
        },
        {
          "internalType": "address",
          "name": "operator",
          "type": "address"
        }
      ],
      "name": "isApprovedForAll",
      "outputs": [
        {
          "internalType": "bool",
          "name": "",
          "type": "bool"
        }
      ],
      "stateMutability": "view",
      "type": "function"
    },
    {
      "inputs": [
        {
          "internalType": "uint256",
          "name": "",
          "type": "uint256"
        }
      ],
      "name": "memberInfo",
      "outputs": [
        {
          "internalType": "enum MembershipNFT.MembershipLevel",
          "name": "level",
          "type": "uint8"
        },
        {
          "internalType": "uint256",
          "name": "votingPower",
          "type": "uint256"
        }
      ],
      "stateMutability": "view",
      "type": "function"
    },
    {
      "inputs": [
        {
          "internalType": "address",
          "name": "to",
          "type": "address"
        },
        {
          "internalType": "enum MembershipNFT.MembershipLevel",
          "name": "level",
          "type": "uint8"
        }
      ],
      "name": "mint",
      "outputs": [],
      "stateMutability": "nonpayable",
      "type": "function"
    },
    {
      "inputs": [],
      "name": "name",
      "outputs": [
        {
          "internalType": "string",
          "name": "",
          "type": "string"
        }
      ],
      "stateMutability": "view",
      "type": "function"
    },
    {
      "inputs": [],
      "name": "owner",
      "outputs": [
        {
          "internalType": "address",
          "name": "",
          "type": "address"
        }
      ],
      "stateMutability": "view",
      "type": "function"
    },
    {
      "inputs": [
        {
          "internalType": "uint256",
          "name": "tokenId",
          "type": "uint256"
        }
      ],
      "name": "ownerOf",
      "outputs": [
        {
          "internalType": "address",
          "name": "",
          "type": "address"
        }
      ],
      "stateMutability": "view",
      "type": "function"
    },
    {
      "inputs": [],
      "name": "renounceOwnership",
      "outputs": [],
      "stateMutability": "nonpayable",
      "type": "function"
    },
    {
      "inputs": [
        {
          "internalType": "address",
          "name": "from",
          "type": "address"
        },
        {
          "internalType": "address",
          "name": "to",
          "type": "address"
        },
        {
          "internalType": "uint256",
          "name": "tokenId",
          "type": "uint256"
        }
      ],
      "name": "safeTransferFrom",
      "outputs": [],
      "stateMutability": "nonpayable",
      "type": "function"
    },
    {
      "inputs": [
        {
          "internalType": "address",
          "name": "from",
          "type": "address"
        },
        {
          "internalType": "address",
          "name": "to",
          "type": "address"
        },
        {
          "internalType": "uint256",
          "name": "tokenId",
          "type": "uint256"
        },
        {
          "internalType": "bytes",
          "name": "data",
          "type": "bytes"
        }
      ],
      "name": "safeTransferFrom",
      "outputs": [],
      "stateMutability": "nonpayable",
      "type": "function"
    },
    {
      "inputs": [
        {
          "internalType": "address",
          "name": "operator",
          "type": "address"
        },
        {
          "internalType": "bool",
          "name": "approved",
          "type": "bool"
        }
      ],
      "name": "setApprovalForAll",
      "outputs": [],
      "stateMutability": "nonpayable",
      "type": "function"
    },
    {
      "inputs": [
        {
          "internalType": "bytes4",
          "name": "interfaceId",
          "type": "bytes4"
        }
      ],
      "name": "supportsInterface",
      "outputs": [
        {
          "internalType": "bool",
          "name": "",
          "type": "bool"
        }
      ],
      "stateMutability": "view",
      "type": "function"
    },
    {
      "inputs": [],
      "name": "symbol",
      "outputs": [
        {
          "internalType": "string",
          "name": "",
          "type": "string"
        }
      ],
      "stateMutability": "view",
      "type": "function"
    },
    {
      "inputs": [
        {
          "internalType": "uint256",
          "name": "index",
          "type": "uint256"
        }
      ],
      "name": "tokenByIndex",
      "outputs": [
        {
          "internalType": "uint256",
          "name": "",
          "type": "uint256"
        }
      ],
      "stateMutability": "view",
      "type": "function"
    },
    {
      "inputs": [
        {
          "internalType": "address",
          "name": "owner",
          "type": "address"
        },
        {
          "internalType": "uint256",
          "name": "index",
          "type": "uint256"
        }
      ],
      "name": "tokenOfOwnerByIndex",
      "outputs": [
        {
          "internalType": "uint256",
          "name": "",
          "type": "uint256"
        }
      ],
      "stateMutability": "view",
      "type": "function"
    },
    {
      "inputs": [
        {
          "internalType": "uint256",
          "name": "tokenId",
          "type": "uint256"
        }
      ],
      "name": "tokenURI",
      "outputs": [
        {
          "internalType": "string",
          "name": "",
          "type": "string"
        }
      ],
      "stateMutability": "view",
      "type": "function"
    },
    {
      "inputs": [],
      "name": "totalSupply",
      "outputs": [
        {
          "internalType": "uint256",
          "name": "",
          "type": "uint256"
        }
      ],
      "stateMutability": "view",
      "type": "function"
    },
    {
      "inputs": [
        {
          "internalType": "address",
          "name": "from",
          "type": "address"
        },
        {
          "internalType": "address",
          "name": "to",
          "type": "address"
        },
        {
          "internalType": "uint256",
          "name": "tokenId",
          "type": "uint256"
        }
      ],
      "name": "transferFrom",
      "outputs": [],
      "stateMutability": "nonpayable",
      "type": "function"
    },
    {
      "inputs": [
        {
          "internalType": "address",
          "name": "newOwner",
          "type": "address"
        }
      ],
      "name": "transferOwnership",
      "outputs": [],
      "stateMutability": "nonpayable",
      "type": "function"
    }
  ],
  "bytecode": "0x60806040523480156200001157600080fd5b50336040518060400160405280601281526020017f476f76696e6461204d656d6265727368697000000000000000000000000000008152506040518060400160405280600381526020017f474d430000000000000000000000000000000000000000000000000000000000815250816000908162000090919062000472565b508060019081620000a2919062000472565b505050600073ffffffffffffffffffffffffffffffffffffffff168173ffffffffffffffffffffffffffffffffffffffff16036200011a5760006040517f1e4fbdf70000000000000000000000000000000000000000000000000000000081526004016200011191906200059e565b60405180910390fd5b6200012b816200013260201b60201c565b50620005bb565b6000600a60009054906101000a900473ffffffffffffffffffffffffffffffffffffffff16905081600a60006101000a81548173ffffffffffffffffffffffffffffffffffffffff021916908373ffffffffffffffffffffffffffffffffffffffff1602179055508173ffffffffffffffffffffffffffffffffffffffff168173ffffffffffffffffffffffffffffffffffffffff167f8be0079c531659141344cd1fd0a4f28419497f9722a3daafe3b4186f6b6457e060405160405180910390a35050565b600081519050919050565b7f4e487b7100000000000000000000000000000000000000000000000000000000600052604160045260246000fd5b7f4e487b7100000000000000000000000000000000000000000000000000000000600052602260045260246000fd5b600060028204905060018216806200027a57607f821691505b60208210810362000290576200028f62000232565b5b50919050565b60008190508160005260206000209050919050565b60006020601f8301049050919050565b600082821b905092915050565b600060088302620002fa7fffffffffffffffffffffffffffffffffffffffffffffffffffffffffffffffff82620002bb565b620003068683620002bb565b95508019841693508086168417925050509392505050565b6000819050919050565b6000819050919050565b6000620003536200034d62000347846200031e565b62000328565b6200031e565b9050919050565b6000819050919050565b6200036f8362000332565b620003876200037e826200035a565b848454620002c8565b825550505050565b600090565b6200039e6200038f565b620003ab81848462000364565b505050565b5b81811015620003d357620003c760008262000394565b600181019050620003b1565b5050565b601f8211156200042257620003ec8162000296565b620003f784620002ab565b8101602085101562000407578190505b6200041f6200041685620002ab565b830182620003b0565b50505b505050565b600082821c905092915050565b6000620004476000198460080262000427565b1980831691505092915050565b600062000462838362000434565b9150826002028217905092915050565b6200047d82620001f8565b67ffffffffffffffff81111562000499576200049862000203565b5b620004a5825462000261565b620004b2828285620003d7565b600060209050601f831160018114620004ea5760008415620004d5578287015190505b620004e1858262000454565b86555062000551565b601f198416620004fa8662000296565b60005b828110156200052457848901518255600182019150602085019450602081019050620004fd565b8683101562000544578489015162000540601f89168262000434565b8355505b6001600288020188555050505b505050505050565b600073ffffffffffffffffffffffffffffffffffffffff82169050919050565b6000620005868262000559565b9050919050565b620005988162000579565b82525050565b6000602082019050620005b560008301846200058d565b92915050565b612a1180620005cb6000396000f3fe608060405234801561001057600080fd5b50600436106101375760003560e01c8063691562a0116100b8578063a22cb4651161007c578063a22cb4651461034e578063b88d4fde1461036a578063c87b56dd14610386578063d90d0ee6146103b6578063e985e9c5146103e7578063f2fde38b1461041757610137565b8063691562a0146102bc57806370a08231146102d8578063715018a6146103085780638da5cb5b1461031257806395d89b411461033057610137565b806323b872dd116100ff57806323b872dd146101f45780632f745c591461021057806342842e0e146102405780634f6ccce71461025c5780636352211e1461028c57610137565b806301ffc9a71461013c57806306fdde031461016c578063081812fc1461018a578063095ea7b3146101ba57806318160ddd146101d6575b600080fd5b61015660048036038101906101519190612095565b610433565b60405161016391906120dd565b60405180910390f35b6101746104ad565b6040516101819190612188565b60405180910390f35b6101a4600480360381019061019f91906121e0565b61053f565b6040516101b1919061224e565b60405180910390f35b6101d460048036038101906101cf9190612295565b61055b565b005b6101de610571565b6040516101eb91906122e4565b60405180910390f35b61020e600480360381019061020991906122ff565b61057e565b005b61022a60048036038101906102259190612295565b610680565b60405161023791906122e4565b60405180910390f35b61025a600480360381019061025591906122ff565b610729565b005b610276600480360381019061027191906121e0565b610749565b60405161028391906122e4565b60405180910390f35b6102a660048036038101906102a191906121e0565b6107bf565b6040516102b3919061224e565b60405180910390f35b6102d660048036038101906102d19190612377565b6107d1565b005b6102f260048036038101906102ed91906123b7565b610879565b6040516102ff91906122e4565b60405180910390f35b610310610933565b005b61031a610947565b604051610327919061224e565b60405180910390f35b610338610971565b6040516103459190612188565b60405180910390f35b61036860048036038101906103639190612410565b610a03565b005b610384600480360381019061037f9190612585565b610a19565b005b6103a0600480360381019061039b91906121e0565b610a3e565b6040516103ad9190612188565b60405180910390f35b6103d060048036038101906103cb91906121e0565b610aa7565b6040516103de92919061267f565b60405180910390f35b61040160048036038101906103fc91906126a8565b610ad8565b60405161040e91906120dd565b60405180910390f35b610431600480360381019061042c91906123b7565b610b6c565b005b60007f780e9d63000000000000000000000000000000000000000000000000000000007bffffffffffffffffffffffffffffffffffffffffffffffffffffffff1916827bffffffffffffffffffffffffffffffffffffffffffffffffffffffff191614806104a657506104a582610bf2565b5b9050919050565b6060600080546104bc90612717565b80601f01602080910402602001604051908101604052809291908181526020018280546104e890612717565b80156105355780601f1061050a57610100808354040283529160200191610535565b820191906000526020600020905b81548152906001019060200180831161051857829003601f168201915b5050505050905090565b600061054a82610cd4565b5061055482610d5c565b9050919050565b61056d8282610568610d99565b610da1565b5050565b6000600880549050905090565b600073ffffffffffffffffffffffffffffffffffffffff168273ffffffffffffffffffffffffffffffffffffffff16036105f05760006040517f64a0ae920000000000000000000000000000000000000000000000000000000081526004016105e7919061224e565b60405180910390fd5b600061060483836105ff610d99565b610db3565b90508373ffffffffffffffffffffffffffffffffffffffff168173ffffffffffffffffffffffffffffffffffffffff161461067a578382826040517f64283d7b00000000000000000000000000000000000000000000000000000000815260040161067193929190612748565b60405180910390fd5b50505050565b600061068b83610879565b82106106d05782826040517fa57d13dc0000000000000000000000000000000000000000000000000000000081526004016106c792919061277f565b60405180910390fd5b600660008473ffffffffffffffffffffffffffffffffffffffff1673ffffffffffffffffffffffffffffffffffffffff168152602001908152602001600020600083815260200190815260200160002054905092915050565b61074483838360405180602001604052806000815250610a19565b505050565b6000610753610571565b8210610799576000826040517fa57d13dc00000000000000000000000000000000000000000000000000000000815260040161079092919061277f565b60405180910390fd5b600882815481106107ad576107ac6127a8565b5b90600052602060002001549050919050565b60006107ca82610cd4565b9050919050565b6107d9610ed0565b60006107e3610571565b90506107ef8382610f57565b60006107fa83610f75565b9050604051806040016040528084600381111561081a57610819612608565b5b815260200182815250600b600084815260200190815260200160002060008201518160000160006101000a81548160ff0219169083600381111561086157610860612608565b5b02179055506020820151816001015590505050505050565b60008073ffffffffffffffffffffffffffffffffffffffff168273ffffffffffffffffffffffffffffffffffffffff16036108ec5760006040517f89c62b640000000000000000000000000000000000000000000000000000000081526004016108e3919061224e565b60405180910390fd5b600360008373ffffffffffffffffffffffffffffffffffffffff1673ffffffffffffffffffffffffffffffffffffffff168152602001908152602001600020549050919050565b61093b610ed0565b6109456000611053565b565b6000600a60009054906101000a900473ffffffffffffffffffffffffffffffffffffffff16905090565b60606001805461098090612717565b80601f01602080910402602001604051908101604052809291908181526020018280546109ac90612717565b80156109f95780601f106109ce576101008083540402835291602001916109f9565b820191906000526020600020905b8154815290600101906020018083116109dc57829003601f168201915b5050505050905090565b610a15610a0e610d99565b8383611119565b5050565b610a2484848461057e565b610a38610a2f610d99565b85858585611288565b50505050565b6060610a4982610cd4565b506000610a54611439565b90506000815111610a745760405180602001604052806000815250610a9f565b80610a7e84611450565b604051602001610a8f929190612813565b6040516020818303038152906040525b915050919050565b600b6020528060005260406000206000915090508060000160009054906101000a900460ff16908060010154905082565b6000600560008473ffffffffffffffffffffffffffffffffffffffff1673ffffffffffffffffffffffffffffffffffffffff16815260200190815260200160002060008373ffffffffffffffffffffffffffffffffffffffff1673ffffffffffffffffffffffffffffffffffffffff16815260200190815260200160002060009054906101000a900460ff16905092915050565b610b74610ed0565b600073ffffffffffffffffffffffffffffffffffffffff168173ffffffffffffffffffffffffffffffffffffffff1603610be65760006040517f1e4fbdf7000000000000000000000000000000000000000000000000000000008152600401610bdd919061224e565b60405180910390fd5b610bef81611053565b50565b60007f80ac58cd000000000000000000000000000000000000000000000000000000007bffffffffffffffffffffffffffffffffffffffffffffffffffffffff1916827bffffffffffffffffffffffffffffffffffffffffffffffffffffffff19161480610cbd57507f5b5e139f000000000000000000000000000000000000000000000000000000007bffffffffffffffffffffffffffffffffffffffffffffffffffffffff1916827bffffffffffffffffffffffffffffffffffffffffffffffffffffffff1916145b80610ccd5750610ccc8261151e565b5b9050919050565b600080610ce083611588565b9050600073ffffffffffffffffffffffffffffffffffffffff168173ffffffffffffffffffffffffffffffffffffffff1603610d5357826040517f7e273289000000000000000000000000000000000000000000000000000000008152600401610d4a91906122e4565b60405180910390fd5b80915050919050565b60006004600083815260200190815260200160002060009054906101000a900473ffffffffffffffffffffffffffffffffffffffff169050919050565b600033905090565b610dae83838360016115c5565b505050565b600080610dc185858561178a565b9050600073ffffffffffffffffffffffffffffffffffffffff168173ffffffffffffffffffffffffffffffffffffffff1603610e0557610e00846119a4565b610e44565b8473ffffffffffffffffffffffffffffffffffffffff168173ffffffffffffffffffffffffffffffffffffffff1614610e4357610e4281856119ed565b5b5b600073ffffffffffffffffffffffffffffffffffffffff168573ffffffffffffffffffffffffffffffffffffffff1603610e8657610e8184611ad8565b610ec5565b8473ffffffffffffffffffffffffffffffffffffffff168173ffffffffffffffffffffffffffffffffffffffff1614610ec457610ec38585611ba9565b5b5b809150509392505050565b610ed8610d99565b73ffffffffffffffffffffffffffffffffffffffff16610ef6610947565b73ffffffffffffffffffffffffffffffffffffffff1614610f5557610f19610d99565b6040517f118cdaa7000000000000000000000000000000000000000000000000000000008152600401610f4c919061224e565b60405180910390fd5b565b610f71828260405180602001604052806000815250611c34565b5050565b6000806003811115610f8a57610f89612608565b5b826003811115610f9d57610f9c612608565b5b03610fab576001905061104e565b60016003811115610fbf57610fbe612608565b5b826003811115610fd257610fd1612608565b5b03610fe0576002905061104e565b60026003811115610ff457610ff3612608565b5b82600381111561100757611006612608565b5b03611015576003905061104e565b60038081111561102857611027612608565b5b82600381111561103b5761103a612608565b5b03611049576004905061104e565b600090505b919050565b6000600a60009054906101000a900473ffffffffffffffffffffffffffffffffffffffff16905081600a60006101000a81548173ffffffffffffffffffffffffffffffffffffffff021916908373ffffffffffffffffffffffffffffffffffffffff1602179055508173ffffffffffffffffffffffffffffffffffffffff168173ffffffffffffffffffffffffffffffffffffffff167f8be0079c531659141344cd1fd0a4f28419497f9722a3daafe3b4186f6b6457e060405160405180910390a35050565b600073ffffffffffffffffffffffffffffffffffffffff168273ffffffffffffffffffffffffffffffffffffffff160361118a57816040517f5b08ba18000000000000000000000000000000000000000000000000000000008152600401611181919061224e565b60405180910390fd5b80600560008573ffffffffffffffffffffffffffffffffffffffff1673ffffffffffffffffffffffffffffffffffffffff16815260200190815260200160002060008473ffffffffffffffffffffffffffffffffffffffff1673ffffffffffffffffffffffffffffffffffffffff16815260200190815260200160002060006101000a81548160ff0219169083151502179055508173ffffffffffffffffffffffffffffffffffffffff168373ffffffffffffffffffffffffffffffffffffffff167f17307eab39ab6107e8899845ad3d59bd9653f200f220920489ca2b5937696c318360405161127b91906120dd565b60405180910390a3505050565b60008373ffffffffffffffffffffffffffffffffffffffff163b1115611432578273ffffffffffffffffffffffffffffffffffffffff1663150b7a02868685856040518563ffffffff1660e01b81526004016112e7949392919061288c565b6020604051808303816000875af192505050801561132357506040513d601f19601f8201168201806040525081019061132091906128ed565b60015b6113a7573d8060008114611353576040519150601f19603f3d011682016040523d82523d6000602084013e611358565b606091505b50600081510361139f57836040517f64a0ae92000000000000000000000000000000000000000000000000000000008152600401611396919061224e565b60405180910390fd5b805160208201fd5b63150b7a0260e01b7bffffffffffffffffffffffffffffffffffffffffffffffffffffffff1916817bffffffffffffffffffffffffffffffffffffffffffffffffffffffff19161461143057836040517f64a0ae92000000000000000000000000000000000000000000000000000000008152600401611427919061224e565b60405180910390fd5b505b5050505050565b606060405180602001604052806000815250905090565b60606000600161145f84611c58565b01905060008167ffffffffffffffff81111561147e5761147d61245a565b5b6040519080825280601f01601f1916602001820160405280156114b05781602001600182028036833780820191505090505b509050600082602083010190505b600115611513578080600190039150507f3031323334353637383961626364656600000000000000000000000000000000600a86061a8153600a85816115075761150661291a565b5b049450600085036114be575b819350505050919050565b60007f01ffc9a7000000000000000000000000000000000000000000000000000000007bffffffffffffffffffffffffffffffffffffffffffffffffffffffff1916827bffffffffffffffffffffffffffffffffffffffffffffffffffffffff1916149050919050565b60006002600083815260200190815260200160002060009054906101000a900473ffffffffffffffffffffffffffffffffffffffff169050919050565b80806115fe5750600073ffffffffffffffffffffffffffffffffffffffff168273ffffffffffffffffffffffffffffffffffffffff1614155b1561173257600061160e84610cd4565b9050600073ffffffffffffffffffffffffffffffffffffffff168373ffffffffffffffffffffffffffffffffffffffff161415801561167957508273ffffffffffffffffffffffffffffffffffffffff168173ffffffffffffffffffffffffffffffffffffffff1614155b801561168c575061168a8184610ad8565b155b156116ce57826040517fa9fbf51f0000000000000000000000000000000000000000000000000000000081526004016116c5919061224e565b60405180910390fd5b811561173057838573ffffffffffffffffffffffffffffffffffffffff168273ffffffffffffffffffffffffffffffffffffffff167f8c5be1e5ebec7d5bd14f71427d1e84f3dd0314c0f7b2291e5b200ac8c7c3b92560405160405180910390a45b505b836004600085815260200190815260200160002060006101000a81548173ffffffffffffffffffffffffffffffffffffffff021916908373ffffffffffffffffffffffffffffffffffffffff16021790555050505050565b60008061179684611588565b9050600073ffffffffffffffffffffffffffffffffffffffff168373ffffffffffffffffffffffffffffffffffffffff16146117d8576117d7818486611dab565b5b600073ffffffffffffffffffffffffffffffffffffffff168173ffffffffffffffffffffffffffffffffffffffff16146118695761181a6000856000806115c5565b6001600360008373ffffffffffffffffffffffffffffffffffffffff1673ffffffffffffffffffffffffffffffffffffffff168152602001908152602001600020600082825403925050819055505b600073ffffffffffffffffffffffffffffffffffffffff168573ffffffffffffffffffffffffffffffffffffffff16146118ec576001600360008773ffffffffffffffffffffffffffffffffffffffff1673ffffffffffffffffffffffffffffffffffffffff168152602001908152602001600020600082825401925050819055505b846002600086815260200190815260200160002060006101000a81548173ffffffffffffffffffffffffffffffffffffffff021916908373ffffffffffffffffffffffffffffffffffffffff160217905550838573ffffffffffffffffffffffffffffffffffffffff168273ffffffffffffffffffffffffffffffffffffffff167fddf252ad1be2c89b69c2b068fc378daa952ba7f163c4a11628f55a4df523b3ef60405160405180910390a4809150509392505050565b6008805490506009600083815260200190815260200160002081905550600881908060018154018082558091505060019003906000526020600020016000909190919091505550565b60006119f883610879565b90506000600760008481526020019081526020016000205490506000600660008673ffffffffffffffffffffffffffffffffffffffff1673ffffffffffffffffffffffffffffffffffffffff1681526020019081526020016000209050828214611aa45760008160008581526020019081526020016000205490508082600085815260200190815260200160002081905550826007600083815260200190815260200160002081905550505b6007600085815260200190815260200160002060009055806000848152602001908152602001600020600090555050505050565b60006001600880549050611aec9190612978565b9050600060096000848152602001908152602001600020549050600060088381548110611b1c57611b1b6127a8565b5b906000526020600020015490508060088381548110611b3e57611b3d6127a8565b5b906000526020600020018190555081600960008381526020019081526020016000208190555060096000858152602001908152602001600020600090556008805480611b8d57611b8c6129ac565b5b6001900381819060005260206000200160009055905550505050565b60006001611bb684610879565b611bc09190612978565b905081600660008573ffffffffffffffffffffffffffffffffffffffff1673ffffffffffffffffffffffffffffffffffffffff168152602001908152602001600020600083815260200190815260200160002081905550806007600084815260200190815260200160002081905550505050565b611c3e8383611e6f565b611c53611c49610d99565b6000858585611288565b505050565b600080600090507a184f03e93ff9f4daa797ed6e38ed64bf6a1f0100000000000000008310611cb6577a184f03e93ff9f4daa797ed6e38ed64bf6a1f0100000000000000008381611cac57611cab61291a565b5b0492506040810190505b6d04ee2d6d415b85acef81000000008310611cf3576d04ee2d6d415b85acef81000000008381611ce957611ce861291a565b5b0492506020810190505b662386f26fc100008310611d2257662386f26fc100008381611d1857611d1761291a565b5b0492506010810190505b6305f5e1008310611d4b576305f5e1008381611d4157611d4061291a565b5b0492506008810190505b6127108310611d70576127108381611d6657611d6561291a565b5b0492506004810190505b60648310611d935760648381611d8957611d8861291a565b5b0492506002810190505b600a8310611da2576001810190505b80915050919050565b611db6838383611f68565b611e6a57600073ffffffffffffffffffffffffffffffffffffffff168373ffffffffffffffffffffffffffffffffffffffff1603611e2b57806040517f7e273289000000000000000000000000000000000000000000000000000000008152600401611e2291906122e4565b60405180910390fd5b81816040517f177e802f000000000000000000000000000000000000000000000000000000008152600401611e6192919061277f565b60405180910390fd5b505050565b600073ffffffffffffffffffffffffffffffffffffffff168273ffffffffffffffffffffffffffffffffffffffff1603611ee15760006040517f64a0ae92000000000000000000000000000000000000000000000000000000008152600401611ed8919061224e565b60405180910390fd5b6000611eef83836000610db3565b9050600073ffffffffffffffffffffffffffffffffffffffff168173ffffffffffffffffffffffffffffffffffffffff1614611f635760006040517f73c6ac6e000000000000000000000000000000000000000000000000000000008152600401611f5a919061224e565b60405180910390fd5b505050565b60008073ffffffffffffffffffffffffffffffffffffffff168373ffffffffffffffffffffffffffffffffffffffff161415801561202057508273ffffffffffffffffffffffffffffffffffffffff168473ffffffffffffffffffffffffffffffffffffffff161480611fe15750611fe08484610ad8565b5b8061201f57508273ffffffffffffffffffffffffffffffffffffffff1661200783610d5c565b73ffffffffffffffffffffffffffffffffffffffff16145b5b90509392505050565b6000604051905090565b600080fd5b600080fd5b60007fffffffff0000000000000000000000000000000000000000000000000000000082169050919050565b6120728161203d565b811461207d57600080fd5b50565b60008135905061208f81612069565b92915050565b6000602082840312156120ab576120aa612033565b5b60006120b984828501612080565b91505092915050565b60008115159050919050565b6120d7816120c2565b82525050565b60006020820190506120f260008301846120ce565b92915050565b600081519050919050565b600082825260208201905092915050565b60005b83811015612132578082015181840152602081019050612117565b60008484015250505050565b6000601f19601f8301169050919050565b600061215a826120f8565b6121648185612103565b9350612174818560208601612114565b61217d8161213e565b840191505092915050565b600060208201905081810360008301526121a2818461214f565b905092915050565b6000819050919050565b6121bd816121aa565b81146121c857600080fd5b50565b6000813590506121da816121b4565b92915050565b6000602082840312156121f6576121f5612033565b5b6000612204848285016121cb565b91505092915050565b600073ffffffffffffffffffffffffffffffffffffffff82169050919050565b60006122388261220d565b9050919050565b6122488161222d565b82525050565b6000602082019050612263600083018461223f565b92915050565b6122728161222d565b811461227d57600080fd5b50565b60008135905061228f81612269565b92915050565b600080604083850312156122ac576122ab612033565b5b60006122ba85828601612280565b92505060206122cb858286016121cb565b9150509250929050565b6122de816121aa565b82525050565b60006020820190506122f960008301846122d5565b92915050565b60008060006060848603121561231857612317612033565b5b600061232686828701612280565b935050602061233786828701612280565b9250506040612348868287016121cb565b9150509250925092565b6004811061235f57600080fd5b50565b60008135905061237181612352565b92915050565b6000806040838503121561238e5761238d612033565b5b600061239c85828601612280565b92505060206123ad85828601612362565b9150509250929050565b6000602082840312156123cd576123cc612033565b5b60006123db84828501612280565b91505092915050565b6123ed816120c2565b81146123f857600080fd5b50565b60008135905061240a816123e4565b92915050565b6000806040838503121561242757612426612033565b5b600061243585828601612280565b9250506020612446858286016123fb565b9150509250929050565b600080fd5b600080fd5b7f4e487b7100000000000000000000000000000000000000000000000000000000600052604160045260246000fd5b6124928261213e565b810181811067ffffffffffffffff821117156124b1576124b061245a565b5b80604052505050565b60006124c4612029565b90506124d08282612489565b919050565b600067ffffffffffffffff8211156124f0576124ef61245a565b5b6124f98261213e565b9050602081019050919050565b82818337600083830152505050565b6000612528612523846124d5565b6124ba565b90508281526020810184848401111561254457612543612455565b5b61254f848285612506565b509392505050565b600082601f83011261256c5761256b612450565b5b813561257c848260208601612515565b91505092915050565b6000806000806080858703121561259f5761259e612033565b5b60006125ad87828801612280565b94505060206125be87828801612280565b93505060406125cf878288016121cb565b925050606085013567ffffffffffffffff8111156125f0576125ef612038565b5b6125fc87828801612557565b91505092959194509250565b7f4e487b7100000000000000000000000000000000000000000000000000000000600052602160045260246000fd5b6004811061264857612647612608565b5b50565b600081905061265982612637565b919050565b60006126698261264b565b9050919050565b6126798161265e565b82525050565b60006040820190506126946000830185612670565b6126a160208301846122d5565b9392505050565b600080604083850312156126bf576126be612033565b5b60006126cd85828601612280565b92505060206126de85828601612280565b9150509250929050565b7f4e487b7100000000000000000000000000000000000000000000000000000000600052602260045260246000fd5b6000600282049050600182168061272f57607f821691505b602082108103612742576127416126e8565b5b50919050565b600060608201905061275d600083018661223f565b61276a60208301856122d5565b612777604083018461223f565b949350505050565b6000604082019050612794600083018561223f565b6127a160208301846122d5565b9392505050565b7f4e487b7100000000000000000000000000000000000000000000000000000000600052603260045260246000fd5b600081905092915050565b60006127ed826120f8565b6127f781856127d7565b9350612807818560208601612114565b80840191505092915050565b600061281f82856127e2565b915061282b82846127e2565b91508190509392505050565b600081519050919050565b600082825260208201905092915050565b600061285e82612837565b6128688185612842565b9350612878818560208601612114565b6128818161213e565b840191505092915050565b60006080820190506128a1600083018761223f565b6128ae602083018661223f565b6128bb60408301856122d5565b81810360608301526128cd8184612853565b905095945050505050565b6000815190506128e781612069565b92915050565b60006020828403121561290357612902612033565b5b6000612911848285016128d8565b91505092915050565b7f4e487b7100000000000000000000000000000000000000000000000000000000600052601260045260246000fd5b7f4e487b7100000000000000000000000000000000000000000000000000000000600052601160045260246000fd5b6000612983826121aa565b915061298e836121aa565b92508282039050818111156129a6576129a5612949565b5b92915050565b7f4e487b7100000000000000000000000000000000000000000000000000000000600052603160045260246000fdfea2646970667358221220eb7f46469a1e43941746186f5377e8e3cfe0a32eb68664c92e834f1d5480928a64736f6c63430008180033",
  "linkReferences": {},
  "deployedLinkReferences": {}
}